{
    "abi": [
        {
            "type": "function",
            "name": "isAddressStored",
            "inputs": [
                {
                    "name": "userAddress",
                    "type": "address",
                    "internalType": "address"
                }
            ],
            "outputs": [
                {
                    "name": "",
                    "type": "bool",
                    "internalType": "bool"
                }
            ],
            "stateMutability": "view"
        },
        {
            "type": "function",
            "name": "storeUserAddress",
            "inputs": [
                {
                    "name": "userAddress",
                    "type": "address",
                    "internalType": "address"
                }
            ],
            "outputs": [],
            "stateMutability": "nonpayable"
        },
        {
            "type": "event",
            "name": "NftAddress",
            "inputs": [
                {
                    "name": "userAddress",
                    "type": "address",
                    "indexed": true,
                    "internalType": "address"
                }
            ],
            "anonymous": false
        },
        {
            "type": "error",
            "name": "ReentrancyGuardReentrantCall",
            "inputs": []
        }
    ],
    "bytecode": {
        "object": "0x6080604052348015600f57600080fd5b5060016000556101ee806100246000396000f3fe608060405234801561001057600080fd5b50600436106100365760003560e01c80634df4dcb21461003b578063f9e3c42c1461007b575b600080fd5b610067610049366004610188565b6001600160a01b031660009081526001602052604090205460ff1690565b604051901515815260200160405180910390f35b61008e610089366004610188565b610090565b005b61009861015e565b6001600160a01b03811660009081526001602052604090205460ff16156101055760405162461bcd60e51b815260206004820152601960248201527f4164647265737320697320616c72656164792073746f72656400000000000000604482015260640160405180910390fd5b6001600160a01b0381166000818152600160208190526040808320805460ff1916909217909155517f7efdba5b95467f3762a6715ecd230b5b49273384d570fced6edbd3a7bc03ed549190a261015b6001600055565b50565b60026000540361018157604051633ee5aeb560e01b815260040160405180910390fd5b6002600055565b60006020828403121561019a57600080fd5b81356001600160a01b03811681146101b157600080fd5b939250505056fea26469706673582212205aaaee6996ef5d2942c726d46640540a5d575b0513424cff522b046aa9c1a82564736f6c63430008190033",
        "linkReferences": {}
    },
    "methodIdentifiers": {
        "isAddressStored(address)": "4df4dcb2",
        "storeUserAddress(address)": "f9e3c42c"
    },
    "id": 21
}